:100000000C942A000C9434000C9434000C943400AA
:100010000C9434000C9434000C9434000C94340090
:100020000C9434000C9434000C9434000C94340080
:100030000C9434000C9434000C9434000C94340070
:100040000C9434000C9434000C9434000C94340060
:100050000C94340011241FBECFE5D4E0DEBFCDBF29
:100060000E9436000C942A010C9400008FEF87BB8D
:1000700084BB81BB8ABB18BA15BA12BA1BBA50E04E
:1000800040E081E090E077E060E0E52FF42FA3B35B
:100090009C010E2E02C0220F331F0A94E2F73A2F62
:1000A000322B33BBAFE9B6E8C1E0A150B040C0404D
:1000B000E1F700C0000033B3232323BB3196E830BF
:1000C000F10529F7E52FF42FA0B39C010E2E02C0F5
:1000D000220F331F0A94E2F73A2F322B30BBAFE9DD
:1000E000B6E8C1E0A150B040C040E1F700C0000058
:1000F00030B3232320BB3196E830F10529F7E52FF3
:10010000F42FA6B39C010E2E02C0220F331F0A94B7
:10011000E2F73A2F322B36BBAFE9B6E8C1E0A15087
:10012000B040C040E1F700C0000036B3232326BB37
:100130003196E830F10529F7E52FF42FA9B39C019A
:100140000E2E02C0220F331F0A94E2F73A2F322BF1
:1001500039BBAFE9B6E8C1E0A150B040C040E1F71B
:1001600000C0000039B3232329BB3196E830F105E4
:1001700029F7E72FF62FABB39C010E2E02C0220FFA
:10018000331F0A94E2F73A2F322B3BBBAFE9B6E8B4
:10019000C1E0A150B040C040E1F700C000003BB357
:1001A000209523232BBB319730F7E72FF62FA8B3E9
:1001B0009C010E2E02C0220F331F0A94E2F73A2F41
:1001C000322B38BBAFE9B6E8C1E0A150B040C04027
:1001D000E1F700C0000038B32095232328BB3197F6
:1001E00030F7E72FF62FA2B39C010E2E02C0220F8C
:1001F000331F0A94E2F73A2F322B32BBAFE9B6E84D
:10020000C1E0A150B040C040E1F700C0000032B3EF
:100210002095232322BB319730F7E72FF62FA5B384
:100220009C010E2E02C0220F331F0A94E2F73A2FD0
:10023000322B35BBAFE9B6E8C1E0A150B040C040B9
:10024000E1F700C0000035B32095232325BB31978B
:0802500030F71BCFF894FFCF3B
:00000001FF
